:100000000C9434000C943E000C943E000C943E0082
:100010000C943E000C943E000C943E000C943E0068
:100020000C943E000C943E000C943E000C943E0058
:100030000C943E000C943E000C943E000C943E0048
:100040000C943E000C943E000C943E000C943E0038
:100050000C943E000C943E000C943E000C943E0028
:100060000C943E000C943E0011241FBECFEFD8E04C
:10007000DEBFCDBF0E9450000C946C000C940000B9
:10008000882311F05B9A01C05B98662311F05A9A9D
:1000900001C05A98442311F05C9A08955C98089521
:1000A0000E945300FDCF8FEF8AB91BB885E0809383
:1000B00081001092850010928400C4E8D0E088810D
:1000C000998189309D43D8F31982188240E060E01D
:0C00D0008FEF0E944000F3CFF894FFCFA8
:00000001FF
