S0110000646973636F204C45442E737265630C
S11300000C9434000C943E000C943E000C943E007E
S11300100C943E000C943E000C943E000C943E0064
S11300200C943E000C943E000C943E000C943E0054
S11300300C943E000C943E000C943E000C943E0044
S11300400C943E000C943E000C943E000C943E0034
S11300500C943E000C943E000C943E000C943E0024
S11300600C943E000C943E0011241FBECFEFD8E048
S1130070DEBFCDBF0E948C040C9400060C940000DB
S11300804F925F926F927F928F929F92AF92BF92A4
S1130090CF92DF92EF92FF920F931F93CF93DF9350
S11300A000D000D0CDB7DEB729833A834B835C837D
S11300B04701580120E030E04FE753E40E94A704D1
S11300C020E030E048EC52E40E9493052B013C010F
S11300D020E030E04FE753E469817A818B819C8191
S11300E00E94A70420E030E048EC52E40E9493050B
S11300F06B017C0120E030E04FE753E4C501B4011B
S11301000E94A70420E030E048EC52E40E949305EA
S11301104B015C0120E030E0A901C301B2010E945F
S1130120A204811101C05B9820E030E0A901C30161
S1130130B2010E948E05181664F520E030E040E21A
S113014051E4C301B2010E94A204181614F11092E2
S113015085001092840020E030E0E4E8F0E051E013
S113016040E080819181419730F02130310509F0E0
S11301705BC35B980EC0808191818D38910588F3B3
S11301802130310571F35B9A11821082252F342FAF
S1130190E8CF20E030E040E251E4C301B2010E9424
S11301A08E05181664F520E030E040EA51E4C301FE
S11301B0B2010E94A204181614F110928500109244
S11301C0840020E030E0E4E8F0E051E040E08081A9
S11301D09181809730F02130310509F02CC35B9870
S11301E00EC0808191818E37910588F321303105CD
S11301F071F35B9A11821082252F342FE8CF20E00F
S113020030E040EA51E4C301B2010E948E051816A1
S113021064F520E030E040EF51E4C301B2010E94F4
S1130220A204181614F1109285001092840020E0A4
S113023030E0E4E8F0E051E040E080819181C09753
S113024030F02130310509F0FDC25B980EC0808189
S113025091818E36910588F32130310571F35B9AD3
S113026011821082252F342FE8CF20E030E040EFB8
S113027051E4C301B2010E948E05181664F520E012
S113028030E040E252E4C301B2010E94A204181615
S113029014F1109285001092840020E030E0E4E82C
S11302A0F0E051E040E080819181CF9730F021303F
S11302B0310509F0CEC25B980EC0808191818E35E4
S11302C0910588F32130310571F35B9A1182108214
S11302D0252F342FE8CF20E030E040E252E4C30180
S11302E0B2010E948E0518166CF520E030E048E457
S11302F052E4C301B2010E94A20418161CF1109228
S113030085001092840020E030E0E4E8F0E051E061
S113031040E0808191818F34910530F021303105A6
S113032009F09EC25B980EC0808191818F34910543
S113033080F32130310569F35B9A11821082252FF5
S1130340342FE7CF20E030E048E452E4C301B201A7
S11303500E948E05181664F520E030E040E752E470
S1130360C301B2010E94A204181614F11092850070
S11303701092840020E030E0E4E8F0E051E040E056
S1130380808191818F35910530F02130310509F05C
S11303906EC25B980DC080819181CF9788F3213024
S11303A0310571F35B9A11821082252F342FE8CF27
S11303B020E030E040E752E4C301B2010E948E0520
S11303C0181664F520E030E04CE852E4C301B201B1
S11303D00E94A204181614F1109285001092840051
S11303E020E030E0E4E8F0E051E040E080819181F9
S11303F08E36910530F02130310509F03EC25B980C
S11304000DC080819181C09788F32130310571F34B
S11304105B9A11821082252F342FE8CF20E030E040
S11304204CE852E4C301B2010E948E05181664F52B
S113043020E030E040EA52E4C301B2010E94A20489
S1130440181614F1109285001092840020E030E018
S1130450E4E8F0E051E040E0808191818E3791053D
S113046030F02130310509F00EC25B980DC0808157
S11304709181809788F32130310571F35B9A118261
S11304801082252F342FE8CF20E030E040EA52E4F8
S1130490C301B2010E948E05181664F520E030E015
S11304A044EB52E4C301B2010E94A204181614F1F1
S11304B0109285001092840020E030E0E4E8F0E03F
S11304C051E040E0808191818D38910530F02130F8
S11304D0310509F0DEC15B980DC08081918141979F
S11304E088F32130310571F35B9A11821082252F34
S11304F0342FE8CF20E030E044EB52E4C301B201F2
S11305000E948E0518165CF420E030E048EC52E4BA
S1130510C301B2010E94A20418160CF05B9A20E0F9
S113052030E0A901C501B4010E94A204811101C0F7
S11305305C9820E030E0A901C501B4010E948E0559
S1130540181664F520E030E048EC51E4C501B4012C
S11305500E94A204181614F11092850010928400CF
S113056020E030E0E4E8F0E051E040E08081918177
S1130570889730F02130310509F091C15C980EC0A4
S1130580808191818637910588F32130310571F39B
S11305905C9A11821082252F342FE8CF20E030E0BE
S11305A048EC51E4C501B4010E948E0518166CF59F
S11305B020E030E048E452E4C501B4010E94A20402
S11305C018161CF1109285001092840020E030E08F
S11305D0E4E8F0E051E040E0808191818F349105BE
S11305E030F02130310509F061C15C980EC0808182
S11305F091818F34910580F32130310569F35C9A40
S113060011821082252F342FE7CF20E030E048E418
S113061052E4C501B4010E948E05181664F520E069
S113062030E046E952E4C501B4010E94A204181660
S113063014F1109285001092840020E030E0E4E888
S1130640F0E051E040E0808191818637910530F0FF
S11306502130310509F031C15C980DC08081918150
S1130660889788F32130310571F35C9A11821082E6
S1130670252F342FE8CF20E030E046E952E4C501CD
S1130680B4010E948E0518165CF420E030E048ECBA
S113069052E4C501B4010E94A20418160CF05C9A3D
S11306A020E030E0A901C701B6010E94A204811133
S11306B001C05A9820E030E0A901C701B6010E94A8
S11306C08E05181664F520E030E048EC51E4C701CB
S11306D0B6010E94A204181614F11092850010921B
S11306E0840020E030E0E4E8F0E051E040E0808184
S11306F09181889730F02130310509F0E4C05A988F
S11307000EC0808191818637910588F321303105AF
S113071071F35A9A11821082252F342FE8CF20E0EA
S113072030E048EC51E4C701B6010E948E0518166A
S11307306CF520E030E048E452E4C701B6010E94C1
S1130740A20418161CF1109285001092840020E077
S113075030E0E4E8F0E051E040E0808191818F34C2
S1130760910530F02130310509F0B4C05A980EC01B
S1130770808191818F34910580F32130310569F3B3
S11307805A9A11821082252F342FE7CF20E030E0CF
S113079048E452E4C701B6010E948E05181664F5B8
S11307A020E030E046E952E4C701B6010E94A20409
S11307B0181614F1109285001092840020E030E0A5
S11307C0E4E8F0E051E040E08081918186379105D2
S11307D030F02130310509F084C05A980DC0808171
S11307E09181889788F32130310571F35A9A1182E7
S11307F01082252F342FE8CF20E030E046E952E480
S1130800C701B6010E948E0518160CF070C020E0D6
S113081030E048EC52E4C701B6010E94A204181665
S11308200CF465C05A9A63C0808191818D3891051A
S113083008F497CCA8CC808191818E37910508F477
S1130840C6CCD7CC808191818E36910508F4F5CC45
S113085006CD808191818E35910508F424CD35CD66
S1130860808191818F34910508F453CD65CD8081C9
S11308709181CF9708F484CD95CD80819181C097E3
S113088008F4B4CDC5CD80819181809708F4E4CD7E
S1130890F5CD80819181419708F414CE25CE8081D5
S11308A091818637910508F461CE72CE8081918161
S11308B08F34910508F490CEA2CE808191818897DF
S11308C008F4C1CED2CE808191818637910508F497
S11308D00ECF1FCF808191818F34910508F43DCFD5
S11308E04FCF80819181889708F46ECF7FCF0F908E
S11308F00F900F900F90DF91CF911F910F91FF9068
S1130900EF90DF90CF90BF90AF909F908F907F90AB
S11309106F905F904F9008958FEF8AB91BB885E070
S1130920809381001092850010928400E12CF12CB8
S11309308701A801970160E070E08FE793E40E94CB
S11309404000F4CF0E94190508F481E008950E9444
S1130950BB040C9454050E944D0558F00E944605B2
S113096040F029F45F3F29F00C943D0551110C949B
S113097088050C9443050E94650568F39923B1F337
S1130980552391F3951B550BBB27AA2762177307B1
S1130990840738F09F5F5F4F220F331F441FAA1F45
S11309A0A9F335D00E2E3AF0E0E832D09150504001
S11309B0E695001CCAF72BD0FE2F29D0660F771FAF
S11309C0881FBB1F261737074807AB07B0E809F095
S11309D0BB0B802DBF01FF2793585F4F3AF09E3F1A
S11309E0510578F00C943D050C9488055F3FE4F3C1
S11309F0983ED4F3869577956795B795F7959F5F5D
S1130A00C9F7880F911D9695879597F90895E1E0A8
S1130A10660F771F881FBB1F621773078407BA0707
S1130A2020F0621B730B840BBA0BEE1F88F7E09562
S1130A300895990F0008550FAA0BE0E8FEEF16166B
S1130A401706E807F907C0F012161306E407F507BE
S1130A5098F0621B730B840B950B39F40A2661F032
S1130A60232B242B252B21F408950A2609F4A140D5
S1130A70A6958FEF811D811D089597F99F6780E8E2
S1130A8070E060E008959FEF80EC089500240A94DC
S1130A901616170618060906089500240A94121655
S1130AA01306140605060895092E0394000C11F488
S1130AB0882352F0BB0F40F4BF2B11F460FF04C035
S1130AC06F5F7F4F8F4F9F4F089557FD9058440F8E
S1130AD0551F59F05F3F71F04795880F97FB991F99
S1130AE061F09F3F79F08795089512161306140656
S1130AF0551FF2CF4695F1DF08C0161617061806E3
S1130B00991FF1CF86957105610508940895E894BD
S1130B10BB2766277727CB0197F908950E9419050B
S1130B2008F48FEF08950E94A6050C9454050E94C2
S1130B30460538F00E944D0520F0952311F00C94E1
S1130B403D050C94430511240C9488050E94650509
S1130B5070F3959FC1F3950F50E0551F629FF0010C
S1130B60729FBB27F00DB11D639FAA27F00DB11D25
S1130B70AA1F649F6627B00DA11D661F829F2227AE
S1130B80B00DA11D621F739FB00DA11D621F839F35
S1130B90A00D611D221F749F3327A00D611D231F0B
S1130BA0849F600D211D822F762F6A2F11249F5759
S1130BB050409AF0F1F088234AF0EE0FFF1FBB1F5C
S1130BC0661F771F881F91505040A9F79E3F51051B
S1130BD080F00C943D050C9488055F3FE4F3983E47
S1130BE0D4F3869577956795B795F795E7959F5FC5
S1130BF0C1F7FE2B880F911D9695879597F9089557
S1070C00F894FFCF92
S9030000FC
