S0110000646973636F204C45442E737265630C
S11300000C9434000C943E000C943E000C943E007E
S11300100C943E000C943E000C943E000C943E0064
S11300200C943E000C943E000C943E000C943E0054
S11300300C943E000C943E000C943E000C943E0044
S11300400C943E000C943E000C943E000C943E0034
S11300500C943E000C943E000C943E000C943E0024
S11300600C943E000C943E0011241FBECFEFD8E048
S1130070DEBFCDBF0E9465000C9470000C9400009C
S113008087BD08958FEF8AB984B5806884BD84B52F
S11300908F7B84BD85B58F7785BD85B58F7B85BD09
S11300A084B5816084BD84B5826084BD85B5886073
S11300B085BD85B5816085BD85B5826085BD85B505
S11300C08B7F85BD15BA16BC08950E94420040E09E
S11300D050E060E070E084E090E00E944000F7CFE0
S10700E0F894FFCFBE
S9030000FC
