S0110000646973636F204C45442E737265630C
S11300000C9434000C943E000C9455000C943E0067
S11300100C943E000C943E000C943E000C943E0064
S11300200C943E000C943E000C943E000C943E0054
S11300300C943E000C943E000C943E000C943E0044
S11300400C943E000C943E000C943E000C943E0034
S11300500C943E000C943E000C943E000C943E0024
S11300600C943E000C943E0011241FBECFEFD8E048
S1130070DEBFCDBF0E9440000C948D000C940000A4
S11300800E944300FDCF8FEF87B98CE088B91AB87E
S113009095E09093810010928500109284008093E3
S11300A0690082E08DBB7894FFCF1F920F920FB648
S11300B00F9211242F933F934F935F938F939F93AA
S11300C0EF93FF93109285001092840028E030E0B3
S11300D0E4E8F0E040E20DC08081918186389E41E1
S11300E0D8F31182108288B1842788B9215031094C
S11300F031F08081918186389E4198F7EDCF189533
S1130100FF91EF919F918F915F914F913F912F912B
S11101100F900FBE0F901F901895F894FFCF1C
S9030000FC
