:100000000C944B000C9468000C9468000C946800ED
:100010000C94A0030C9468000C9468000C94A50048
:100020000C9468000C9468000C9468000C946800B0
:100030000C9468000C9468000C94E4000C94680024
:100040000C9468000C9468000C9468000C94680090
:100050000C9468000C9468000C9468000C94680080
:100060000C9468000C946800700274026D02030323
:100070007B0283028B0293029B02A402AD02030364
:10008000B602BF02C8027802D102DA02E302030319
:10009000EC02F402FC0211241FBECFEFD8E0DEBF59
:1000A000CDBF11E0A0E0B1E0EEE6FBE002C00590BC
:1000B0000D92A233B107D9F721E0A2E3B1E001C06C
:1000C0001D92A136B207E1F70E94F1040C94B50528
:1000D0000C940000AF92BF92CF92DF92EF92FF920A
:1000E0000F931F93CF93CFB7F894E2E0E093B00063
:1000F000F3E0F093B100E09370006894AA24A6F8AE
:100100000F2EF2E4BF2EF02D0F2EFFE0CF2EF02D9C
:10011000D12CE12CF12C00E010E00E94190503E045
:100120000E94780589E1289F202D112421502093D9
:10013000B300CFBF7894CF911F910F91FF90EF90B4
:10014000DF90CF90BF90AF9008951F920F920FB69F
:100150000F9211242F933F934F935F936F937F934D
:100160008F939F93AF9320913A0130913B0140913F
:100170003C0150913D0160913E0170913F018091A1
:10018000400190914101A1E00E94940520933A0121
:1001900030933B0140933C0150933D0160933E01FD
:1001A00070933F018093400190934101AF919F91E3
:1001B0008F917F916F915F914F913F912F910F9010
:1001C0000FBE0F901F9018951F920F920FB60F92AF
:1001D00011242F933F934F935F936F937F938F934C
:1001E0009F93AF93209132013091330140913401BC
:1001F000509135016091360170913701809138013D
:1002000090913901A1E00E9494052093320130932E
:10021000330140933401509335016093360170935C
:1002200037018093380190933901AF919F918F915D
:100230007F916F915F914F913F912F910F900FBEE2
:100240000F901F9018958FEF8AB984B91BB815B815
:1002500084B5816084BD84B5826084BD85B5877FA7
:1002600085BD84B5806484BD84B5806884BD84B553
:10027000806184BD84B5806284BD85B5816085BDA3
:1002800085B5826085BD85B58B7F85BDA0E8B0E072
:100290008C9181608C938C918D7F8C93E1E8F0E060
:1002A00080818860808380818F7E80838C91806450
:1002B0008C938C9180688C93808181608083808115
:1002C0008260808380818B7F808316BC1092850042
:1002D0001092840010924301109242011092440146
:1002E00008958095409587BD609570E07093890072
:1002F0006093880048BD089517BCE8E8F0E02FEF50
:1003000030E0318320838FEF88BD4FEF59E668E1FD
:10031000415050406040E1F700C0000017BC4FE77B
:1003200050E05183408388BD7FEF99E6A8E171508A
:100330009040A040E1F700C0000017BC118210827D
:1003400088BDBFEF69E678E1B15060407040E1F7E9
:1003500000C000009FE797BD1182108288BDAFEFFB
:10036000B9E668E1A150B0406040E1F700C000008C
:1003700087BD1182108298BD7FEFA9E6B8E1715068
:10038000A040B040E1F700C0000087BD118210829C
:1003900018BC6FEF79E6A8E161507040A040E1F72A
:1003A00000C0000087BD5183408318BCBFEF69E6E1
:1003B00078E1B15060407040E1F700C0000087BDB7
:1003C0003183208318BCAFEFB9E668E1A150B0409B
:1003D0006040E1F700C0000060E867BD3183208322
:1003E00018BC7FEFA9E6B8E17150A040B040E1F73A
:1003F00000C0000017BC3183208318BC7FEFA9E642
:10040000B8E17150A040B040E1F700C0000017BC57
:100410003183208368BD6FEF79E6A8E161507040B9
:10042000A040E1F700C0000097BD5183408398BD14
:10043000BFEF49E658E1B15040405040E1F700C0FD
:10044000000087BD3183208388BD08958130B1F4D9
:1004500080914301882319F0865F80934301809146
:100460004201882319F0865F809342018091440104
:100470008823C9F0865F80934401089580914301E9
:10048000882319F08A508093430180914201882388
:1004900019F08A508093420180914401882319F019
:1004A0008A508093440108958FEF87BD2FEF30E08D
:1004B000309389002093880088BD0E9445038F31C6
:1004C000E1F7089590E0FC017C97E731F10508F031
:1004D0009AC0EC5CFF4F0C9411050E9454020895E1
:1004E00081E00E942602089580E00E94260208957D
:1004F0000E947C0108958FEF809343011092420186
:10050000109244010895109243018FEF80934201AD
:1005100010924401089510924301109242018FEF0E
:100520008093440108958FEF8093430180934201AB
:100530008093440108958FEF8093430180E480937A
:100540004201109244010895109243018FEF80936D
:10055000420180E480934401089580E48093430144
:100560008FEF809342011092440108958FEF8093A2
:10057000430180E880934201109244010895109253
:1005800043018FEF8093420180E8809344010895F6
:1005900080E880934301109242018FEF80934401E1
:1005A00008958FEF809343018FEB80934201109267
:1005B00044010895109243018FEF809342018FEB25
:1005C0008093440108958FEB809343011092420180
:1005D0008FEF8093440108958FEF809343018093C0
:1005E0004201109244010895109243018FEF8093CD
:1005F00042018093440108958FEF8093430110924C
:1006000042018093440108959A015FB7F894E5E4AC
:10061000F1E0778B668B1082128A138A148A158A0E
:100620001282138214821582168217821086118616
:10063000128613861486158616861786108A118AE6
:10064000108EAEE5B1E09C919E7F9D7F9C9381834F
:10065000338F228F47B121E030E0B90102C0660F2D
:10066000771F8A95E2F7CB01962F9095942397B93F
:10067000E8E6F0E0908192609083ECE6F0E0908113
:10068000892B80835FBF78940895CF93DF939FB7C2
:10069000F89480915E0180FF03C09FBF80E04DC051
:1006A00081FF08C0EEE5F1E080818D7F80839FBFF0
:1006B00081E043C0E5E4F1E0A28DB38D4289538926
:1006C00064897589268937892417350749F0852F6C
:1006D000809584132CC0E42FF0E02E173F0739F5E6
:1006E000262F872F8095681322C011968C91119721
:1006F0008823E9F08C91681741F0FD01C5E4D1E051
:1007000010C0808128130DC001C0FD01C5E4D1E0F7
:100710001A8A1B8A1C8A1D8A8181BB8FAA8F9FBF60
:100720000CC03296FB8FEA8F81818111EACFB093A2
:100730006001A0935F019FBF80E0DF91CF9108959A
:100740001F920F920FB60F9211246F927F928F9289
:100750009F92AF92BF92CF92DF92EF92FF920F9350
:100760001F932F933F934F935F936F937F938F9339
:100770009F93AF93BF93CF93DF93EF93FF9326B1F4
:100780004091460181E090E0042E02C0880F991F3D
:100790000A94E2F730E08223932302C0959587956F
:1007A0004A95E2F7811154C060903A0170903B0184
:1007B00080903C0190903D01D0913E01C0913F015D
:1007C000B0914001A0914101E5E4F1E0262D372DE3
:1007D000482D592D6D2F7C2F8B2F9A2FA284B384F7
:1007E000C484D584E684F784008911890E94A00519
:1007F00022833383448355836683778380879187FD
:100800002E3734404105510561057105810591057B
:1008100051F048F010925D01EEE5F1E080818E7FAD
:100820008D7F808307C080914501882319F0823035
:1008300021F0B8C081E080934501E5E4F1E06286F3
:10084000738684869586D687C787B08BA18BAAC00E
:1008500080914501813019F0823029F0A3C082E0F7
:10086000809345019FC0E5E4F1E06280738084805D
:100870009580D681C781B085E185262D372D482DFD
:10088000592D6D2F7C2F8B2F9E2F2238310541053E
:100890005105610571058105910541F038F0EEE5DE
:1008A000F1E0808181608D7F80836FC0262D372DA0
:1008B000482D592D6D2F7C2F8B2F9E2FAEE60E9439
:1008C000A90551F048F0EEE5F1E0808182608E7F6D
:1008D00080831092450159C0262D372D482D592D62
:1008E0006D2F7C2F8B2F9E2FA4E10E94A905F9F07C
:1008F000F0F0E5E4F1E0208D81E090E0A0E0B0E0F0
:10090000022E04C0880F991FAA1FBB1F0A94D2F79A
:100910004289538964897589842B952BA62BB72B23
:10092000828B938BA48BB58B2F5F208F2EC0262DAF
:10093000372D482D592D6D2F7C2F8B2F9E2FA9E001
:100940000E94A90511F108F1E5E4F1E0208D81E0B4
:1009500090E0A0E0B0E0022E04C0880F991FAA1F0B
:10096000BB1F0A94D2F780959095A095B0954289C7
:1009700053896489758984239523A623B723828BA1
:10098000938BA48BB58B2F5F208F80915D0180327C
:1009900048F0E5E4F1E0108EAEE5B1E08C918E7F99
:1009A0008C931082FF91EF91DF91CF91BF91AF9126
:1009B0009F918F917F916F915F914F913F912F9177
:1009C0001F910F91FF90EF90DF90CF90BF90AF906D
:1009D0009F908F907F906F900F900FBE0F901F9001
:1009E00018950E94230140E051E060E07FEE85E031
:1009F0000E94040320E034E244EF50E060E070E045
:100A000080E090E00E946A000E9445030E9462021A
:100A10004091440160914201809143010E94710123
:100A2000F3CFEE0FFF1F0590F491E02D0994689429
:100A300001C0E8948F929F92CF93DF930E94250587
:100A4000DF91CF919F908F90089588249924F4018D
:100A5000E401B0E49F93AA279A158B049C04ED054A
:100A6000FE05CF05D007A10798F4AD2FDC2FCF2FBF
:100A7000FE2FE92D982C892E982F872F762F652F02
:100A8000542F432F322F2227B85031F7BF9127C060
:100A90001B2EBF91BB27220F331F441F551F661FFC
:100AA000771F881F991F881C991CEE1FFF1FCC1FE2
:100AB000DD1FAA1FBB1F8A149B04EC05FD05CE0594
:100AC000DF05A007B10748F08A189B08EC09FD096B
:100AD000CE09DF09A00BB10B21601A94E1F62EF4C8
:100AE0009401AF01BE01CD01000C089597FB10F8F1
:100AF000169400080F93083098F00850232F342FD5
:100B0000452F562F672F782F892F902DF4CF0594DE
:100B10009795879577956795579547953795279535
:100B20000A95AAF70F9108950024A7FD00942A0FB3
:100B3000301D401D501D601D701D801D901D0895AD
:100B40002A193B094C095D096E097F09800B910B3D
:100B500008950024A7FD00942A173005400550058C
:0E0B600060057005800590050895F894FFCF9C
:100B6E00001C011D021E031F04200521062207235F
:100B7E00082409250A260B270C280D290E2A0F2BCF
:100B8E00102C112D122E132F14301531163217333F
:020B9E00FF0056
:00000001FF
