:100000000C9434000C943E000C943E000C943E0082
:100010000C943E000C943E000C943E000C943E0068
:100020000C943E000C943E000C943E000C943E0058
:100030000C943E000C943E000C943E000C943E0048
:100040000C943E000C943E000C943E000C943E0038
:100050000C943E000C943E000C943E000C943E0028
:100060000C943E000C943E0011241FBECFEFD8E04C
:10007000DEBFCDBF0E942E010C9438010C9400000D
:1000800080956095409587BD48BD6093B400089504
:100090008FEF8AB994B5916094BD94B5926094BD88
:1000A00095B5977F95BD94B5906894BD94B59064CF
:1000B00094BD94B5906294BD94B5906194BD95B58E
:1000C0009F7795BD95B59F7B95BD95B5916095BD85
:1000D00095B5926095BD95B59B7F95BDA0EBB0E0C1
:1000E0009C9191609C939C9192609C93E1EBF0E0D9
:1000F0009081977F90839C9190629C939C9190615A
:100100009C9390819F77908390819F7B9083908137
:100110009E7F908390819D7F908390819460908357
:1001200087BD88BD8093B400089517BC8FEF88BD4C
:10013000E4EBF0E080832FEF39E648E121503040D6
:100140004040E1F700C0000017BC88BD9FE79083E6
:100150005FEF29E638E1515020403040E1F700C020
:10016000000017BC88BD10824FEF59E628E14150CE
:1001700050402040E1F700C0000097BD88BD1082CC
:100180003FEF49E658E1315040405040E1F700C0B0
:10019000000087BD98BD10822FEF39E648E121505D
:1001A00030404040E1F700C0000087BD18BC10821D
:1001B0005FEF29E638E1515020403040E1F700C0C0
:1001C000000087BD18BC90834FEF59E628E14150ED
:1001D00050402040E1F700C0000087BD18BC80837C
:1001E0003FEF49E658E1315040405040E1F700C050
:1001F000000020E827BD18BC80833FEF49E658E1A6
:10020000315040405040E1F700C0000017BC18BC1E
:1002100080833FEF49E658E1315040405040E1F7DC
:1002200000C0000017BC28BD80832FEF39E648E1ED
:10023000215030404040E1F700C0000097BD98BD1C
:1002400090835FEF99E628E1515090402040E1F71C
:1002500000C0000087BD88BD808308950E944800CB
:100260000E94950040E060E080E00E944000FACFEC
:04027000F894FFCF30
:00000001FF
