S0110000646973636F204C45442E737265630C
S11300000C9434000C943E000C943E000C943E007E
S11300100C943E000C943E000C943E000C943E0064
S11300200C943E000C943E000C943E000C943E0054
S11300300C943E000C943E000C943E000C943E0044
S11300400C943E000C943E000C943E000C943E0034
S11300500C943E000C943E000C943E000C943E0024
S11300600C943E000C943E0011241FBECFEFD8E048
S1130070DEBFCDBF0E9441000C9454000C940000DC
S113008008950E944400FDCF8FEF8AB91BB885E024
S113009080938100109285001092840040E060E01B
S10F00A080E00E944000FACFF894FFCFEB
S9030000FC
